:100000005EC000007BC0000079C0000077C0000027
:1000100075C0000073C0000071C000006FC0000018
:100020006DC000006BC0000069C0000067C0000028
:10003000E7C6000063C0000061C000005FC00000B0
:100040005DC000005BC0000059C0000057C0000048
:1000500055C0000053C0000051C000004FC0000058
:100060004DC000004BC00000E6C6000047C00000C5
:1000700045C0000043C0000041C000003FC0000078
:100080003DC000003BC0000039C00000BE02C902F4
:10009000DF02EE022E0336034E0357040705EB047E
:1000A000CF04B30497047B045F0423053D05450595
:1000B00061057D059905B505D105EC0507061124F7
:1000C0001FBECFEFD0E1DEBFCDBF11E0A0E0B1E0B9
:1000D000EAEFF1E100E00BBF02C007900D92AE38ED
:1000E000B107D9F721E0AEE8B1E001C01D92A93C0B
:1000F000B207E1F70E94C4080C94FB0881CF80EF9F
:1001000082B98FEF87BB9FE094BB8ABB809361006D
:1001100087E18093640011BA08951FBC8DE08EBD05
:1001200080E990E09BBD8ABD089510928B008AE023
:1001300080938A008DEB9DE09093870080938600EA
:10014000089580E187BF80937D0080E88FBF089588
:100150008091C6018F5F8093C601843010F01092A9
:10016000C6018091C601813049F028F0823049F003
:10017000833051F00BC08EEF85BB08C08DEF85BB7F
:1001800005C08BEF85BB02C087EF85BB83E397E09B
:100190000197F1F783B382958F70809398019091C6
:1001A000C60191111BC08823C9F08E3021F481E370
:1001B0008093020108958D3021F482E3809302013F
:1001C00008958B3021F483E38093020108958730F2
:1001D00009F057C081E48093020108959130D1F471
:1001E0008823C1F08E3021F484E3809302010895C6
:1001F0008D3021F485E38093020108958B3021F442
:1002000086E38093020108958730D9F582E48093D4
:10021000020108959230D1F48823C1F08E3021F488
:1002200087E38093020108958D3021F488E3809361
:10023000020108958B3021F489E38093020108952F
:100240008730F9F483E48093020108959330C9F470
:100250008823B9F08E3021F48AE280930201089558
:100260008D3021F480E38093020108958B3021F4D6
:1002700083E2809302010895873019F484E4809327
:1002800002010895CF93DF9380B3E0B3E270F82FBB
:10029000F17080FF09C080919301811105C08091A8
:1002A000BF018F5F8093BF01E23049F480919201DA
:1002B000811105C080919A018F5F80939A0180918E
:1002C000BF0190919A0124EF31E0929FA001939F8A
:1002D000500D112424E6829F400D511D1124609180
:1002E000C20128EE33E0629FC001639F900D11248C
:1002F000480F591F6091C40188E893E1689F9001FD
:10030000699F300D1124420F531F50939701409362
:10031000960180919501833019F0853009F090C0E5
:100320004091C7015091C8019A01ADECBCEC54D783
:100330009695879596958795969587959C01220F1A
:10034000331F880F991F880F991F880F991F820FDD
:10035000931F9A01281B390B2093C1019A013CD7A6
:10036000EC01D695C795D695C795D695C7959E01AC
:1003700033D79695879596958795969587959C0101
:10038000220F331F880F991F880F991F880F991FFD
:10039000820F931F9E01281B390B209399019A010C
:1003A0003695279536952795ABE7B4E115D7EC013F
:1003B000D695C7959E01ADECBCEC0ED7969587956A
:1003C00096958795969587959C01220F331F880FE8
:1003D000991F880F991F880F991F820F931F9E01E5
:1003E000281B390B2093C0019A0136952795369525
:1003F000279536952795A5ECB0E2EED6AC0152953F
:1004000042954F7045275F7045279A01ADECBCECD3
:10041000E3D69695879596958795969587959C01B1
:10042000220F331F880F991F880F991F880F991F5C
:10043000820F931F9A01281B390B209394018BC0C4
:100440009A01ADECBCECC8D69695879596958795A4
:10045000969587959C01220F331F880F991F880F4F
:10046000991F880F991F820F931F9A01281B390B20
:100470002093C1019A01B0D6EC01D695C795D695C7
:10048000C795D695C7959E01A7D6969587959695BB
:100490008795969587959C01220F331F880F991F8A
:1004A000880F991F880F991F820F931F9E01281B89
:1004B000390B209399019A01369527953695279502
:1004C000ABE7B4E189D6EC01D695C7959E01ADECBA
:1004D000BCEC82D696958795969587959695879547
:1004E0009C01220F331F880F991F880F991F880FB7
:1004F000991F820F931F9E01281B390B2093C00167
:100500009A01369527953695279536952795A5EC2A
:10051000B0E262D6AC01529542954F7045275F70AC
:1005200045279A01ADECBCEC57D6969587959695E4
:100530008795969587959C01220F331F880F991FE9
:10054000880F991F880F991F820F931F9A01281BEC
:10055000390B20939401F0939301E0939201DF9182
:10056000CF910895E09195018E2F90E0873091050D
:1005700008F0ABC0FC01EA5BFF4F25C680919601F5
:1005800090919701892B09F4A0C081E08093950197
:100590000895809102019FEC980F983008F095C063
:1005A00080538093010182E08093950180919601B0
:1005B000909197019093C8018093C701089580910D
:1005C0000201893321F483E08093950108958033FB
:1005D00009F07BC086E0809395010895E0910101C8
:1005E000F0E03197EE0FFF1FEF5EFE4F208131816B
:1005F0008091C7019091C8018217930760F44091E0
:10060000C501483041F440910001413021F484E0BB
:1006100080939501089540910201403321F486E0D2
:1006200080939501089540910001413041F4821B6F
:10063000930B9093C8018093C701109200018091A1
:10064000C7019091C801892B09F03FC08091C50175
:100650008830D9F585E08093950108958091020155
:10066000803399F586E08093950108958091C501C6
:10067000883059F5109295011092C50181E0809360
:10068000000110929701109296011092BF011092F2
:100690009A011092C2011092C40108958091C5017F
:1006A000883099F4109295011092C50181E08093F1
:1006B000000110929701109296011092BF011092C2
:1006C0009A011092C2011092C4010895809195017F
:1006D000843009F484C018F4833041F0A6C2853018
:1006E00009F4D9C0863009F4BCC19FC28091C5010C
:1006F000833089F128F4882351F0813081F069C07A
:10070000853009F444C0883009F45DC062C081E0DE
:100710008093C50110929C0110929B0108958091D5
:10072000030190910401909387008093860080914B
:100730009B0190919C01019690939C0180939B0159
:10074000C29708F477C210929C0110929B0183E03B
:100750008093C501089580910701909108019093BD
:1007600087008093860080919B0190919C01019667
:1007700090939C0180939B01C29708F45BC21092F6
:100780009C0110929B0185E08093C50108958091A2
:100790000B0190910C0190938700809386008091CB
:1007A0009B0190919C01019690939C0180939B01E9
:1007B000C29708F43FC210929C0110929B0188E0FE
:1007C0008093C5010895E5E6F0E080818F7E808307
:1007D0000895E5E6F0E080818F7E80830895809122
:1007E000C501833091F018F4882339F04EC087306A
:1007F00041F1883009F441C048C083E08093C501CD
:1008000010929C0110929B01089580910701909194
:100810000801909387008093860080919B019091BE
:100820009C01019690939C0180939B01C29708F4D0
:1008300001C210929C0110929B0187E08093C50138
:10084000089580910F0190911001909387008093FB
:10085000860080919B0190919C01019690939C0150
:1008600080939B01C29708F4E5C110929C011092FD
:100870009B0188E08093C50108951092C501E5E6CB
:10088000F0E080818F7E80830895E5E6F0E080814E
:100890008F7E80830895E091C5018E2F90E089308E
:1008A000910508F0D8C0FC01E35BFF4F8CC487E0E2
:1008B0008093C50110929C0110929B010895809134
:1008C0000F01909110019093870080938600809192
:1008D0009B0190919C01019690939C0180939B01B8
:1008E000C29708F4A7C110929C0110929B0186E068
:1008F0008093C501089580910D0190910E01909310
:1009000087008093860080919B0190919C010196C5
:1009100090939C0180939B01C29708F48BC1109225
:100920009C0110929B0185E08093C5010895809100
:100930000B0190910C019093870080938600809129
:100940009B0190919C01019690939C0180939B0147
:10095000C29708F46FC110929C0110929B0184E031
:100960008093C50108958091090190910A019093A7
:1009700087008093860080919B0190919C01019655
:1009800090939C0180939B01C29708F453C11092ED
:100990009C0110929B0183E08093C5010895809192
:1009A00007019091080190938700809386008091C1
:1009B0009B0190919C01019690939C0180939B01D7
:1009C000C29708F437C110929C0110929B0182E0FB
:1009D0008093C5010895809105019091060190933F
:1009E00087008093860080919B0190919C010196E5
:1009F00090939C0180939B01C29708F41BC11092B5
:100A00009C0110929B0181E08093C5010895809123
:100A10000301909104019093870080938600809158
:100A20009B0190919C01019690939C0180939B0166
:100A3000C29708F4FFC010929C0110929B0188E0BD
:100A40008093C50108951092C501E5E6F0E080812C
:100A50008F7E80830895E5E6F0E080818F7E80833D
:100A60000895E091C5018E2F90E08930910508F03E
:100A7000D6C0FC01EA5AFF4FA6C381E08093C501AE
:100A800010929C0110929B01089580910301909116
:100A90000401909387008093860080919B01909140
:100AA0009C01019690939C0180939B01C29708F44E
:100AB000C1C010929C0110929B0182E08093C501FD
:100AC000089580910501909106019093870080938D
:100AD000860080919B0190919C01019690939C01CE
:100AE00080939B01C29708F4A5C010929C011092BC
:100AF0009B0183E08093C501089580910701909147
:100B00000801909387008093860080919B019091CB
:100B10009C01019690939C0180939B01C29708F4DD
:100B200089C010929C0110929B0184E08093C501C2
:100B300008958091090190910A0190938700809314
:100B4000860080919B0190919C01019690939C015D
:100B500080939B01C29708F46DC010929C01109283
:100B60009B0185E08093C501089580910B019091D0
:100B70000C01909387008093860080919B01909157
:100B80009C01019690939C0180939B01C29708F46D
:100B900051C010929C0110929B0186E08093C50188
:100BA000089580910D0190910E019093870080939C
:100BB000860080919B0190919C01019690939C01ED
:100BC00080939B01C297B0F110929C0110929B01FF
:100BD00087E08093C501089580910F0190911001E5
:100BE000909387008093860080919B0190919C0157
:100BF000019690939C0180939B01C297D8F010922C
:100C00009C0110929B0188E08093C5010895109289
:100C1000C501E5E6F0E080818F7E80830895E5E6FA
:100C2000F0E080818F7E80830895E5E6F0E08081AA
:100C30008F7E8083089580E007C0E82FF0E0E256C1
:100C4000FE4F90E290838F5F8032B8F30895E5E61F
:100C5000F0E090819B7F908390819D7F9083908135
:100C60009160908395E09A95F1F78BBB80818E7FA0
:100C7000808385E08A95F1F7089588E3E8DF86E6CA
:100C80009EE00197F1F7000088E3E1DF86E69EE051
:100C90000197F1F7000088E3DADF86E69EE001972E
:100CA000F1F700008CE0D3DF8FEF9FE80197F1F7B9
:100CB00000C0000086E0CBDF8FEF9FE80197F1F7DF
:100CC00000C0000081E0C3DF8FEF9FE80197F1F7DC
:100CD00000C00000089590E4899F600D1124862FC4
:100CE0008068B5CF0895E5E6F0E090819460908348
:100CF00090819D7F908390819160908395E09A95FB
:100D0000F1F78BBB80818E7F808385E08A95F1F738
:100D1000089580918F018F5F80938F01843010F050
:100D200010928F0180919501843018F4813020F069
:100D300009C0853039F038C080EF83B98091330124
:100D400088BB089580918F01813081F028F0823036
:100D5000B9F08330F9F0089580E183B9E091C101E1
:100D6000F0E0E75DFE4F808188BB089580E283B9A3
:100D7000E0919901F0E0E75DFE4F808188BB089526
:100D800080E483B9E091C001F0E0E75DFE4F80812F
:100D900088BB089580E883B9E0919401F0E0E75DB5
:100DA000FE4F808188BB08958FEF88BB089580E057
:100DB00024C0E82FF0E0EF5DFE4F9081992371F0A1
:100DC000E2E6F0E0908121E030E0082E02C0220F40
:100DD000331F0A94E2F7292B20830EC0E2E6F0E0ED
:100DE000908121E030E0082E02C0220F331F0A94C8
:100DF000E2F72095292320838F5F8830D0F2089571
:100E00001F920F920FB60F9211248F9381E080935F
:100E10009D018091C3018F5F8093C3018A3028F0C8
:100E20001092C30181E08093BE018F910F900FBE9D
:100E30000F901F9018951F920F920FB60F921124CA
:100E40000BB60F928F93EF93FF938091C501882388
:100E5000B9F08830A9F080918E01811109C0E5E6D2
:100E6000F0E080818061808381E080938E010FC0FB
:100E7000E5E6F0E080818F7E808310928E0107C0CE
:100E8000E5E6F0E080818F7E808310928E01FF91F5
:100E9000EF918F910F900BBE0F900FBE0F901F9090
:100EA000189590919B0095FFFCCF80939C0008952E
:100EB000EF92FF920F931F93CF93DF937C018B01EF
:100EC000C0E0D0E006C0F701EC0FFD1F8081E9DF34
:100ED0002196C017D107B8F3DF91CF911F910F91E1
:100EE000FF90EF9008951F93CF93DF93809191012E
:100EF00081110BC0809190018F5F809390018A30A7
:100F000068F081E08093910109C080919001815047
:100F100080939001811102C01092910180919501FE
:100F2000813009F45FC038F0823009F4B0C08430F9
:100F300009F4F2C017C17FDE60E080E0CCDE80E122
:100F4000E4E3F1E0AEE9B1E001900D928A95E1F7BA
:100F50008AE08093AD0160E170E08EE991E0A8DF66
:100F6000C0E007C0EC2FF0E0E256FE4F8081BBDE10
:100F7000CF5FC031B8F360E081E0ADDE80919001D9
:100F800090E0FC01E255FE4F2DE22083FC01E1558B
:100F9000FE4F3FE43083FC01E055FE4F30E53083E7
:100FA000FC01EF54FE4F35E43083FC01EE54FE4F5C
:100FB0003EE43083FC01ED54FE4F20838AE08093B1
:100FC000BD0160E170E08EEA91E072DFC0E107C030
:100FD000EC2FF0E0E256FE4F808185DECF5FC0321D
:100FE000B8F3C0C028DE60E080E075DE8EE0E4E4A7
:100FF000F1E0AEE9B1E001900D928A95E1F78AE067
:101000008093AD0160E170E08EE991E051DFC0E0D6
:1010100007C0EC2FF0E0E256FE4F808164DECF5F28
:10102000C031B8F360E081E056DEEEE9F1E0809196
:101030009401805D818B8091C001805D828B809165
:101040009901805D838B8091C101805D848BA4EBCD
:10105000B1E087E79FE611969C938E938EE690E031
:1010600013969C938E9312978AE0878F60E170E0CD
:101070008EEA91E01DDFC0E107C0EC2FF0E0E25600
:10108000FE4F808130DECF5FC032B8F36BC0D3DD5E
:1010900060E080E020DECEE9D1E08FE0E2E5F1E043
:1010A000DE0101900D928A95E1F78EE38D878091A4
:1010B0000101805D8E878AE08F8760E170E0CE015C
:1010C000F7DEC0E007C0EC2FF0E0E256FE4F808173
:1010D0000ADECF5FC031B8F360E081E0FCDD81E182
:1010E000E1E6F1E0AEEAB1E001900D928A95E1F718
:1010F0008AE08093BD0160E170E08EEA91E0D8DE85
:10110000C0E107C0EC2FF0E0E256FE4F8081EBDD3E
:10111000CF5FC032B8F326C08EDD60E080E0DBDD5B
:10112000CEE9D1E08DE0E2E7F1E0DE0101900D9241
:101130008A95E1F71AE01F8760E170E0CE01B8DE22
:1011400060E081E0C8DD8FE0EFE7F1E0AEEAB1E01A
:1011500001900D928A95E1F718A360E170E08EEAA4
:1011600091E0A6DEDF91CF911F91089510929B0030
:1011700088E180939A0086E080939D001092980009
:1011800088E08093990008950E947F0076DD0E9498
:101190008D000E949500EADF0E94A10080919D01D0
:1011A000813041F410929D010E94A8006BD8DAD9D9
:1011B0008DDAAFDD8091BE01813081F71092BE01E2
:1011C000F6DD91DEEBCFEE0FFF1F0024001C0BBEFF
:1011D0000790F691E02D0994A29FB001B39FC00142
:1011E000A39F700D811D1124911DB29F700D811D53
:0A11F0001124911D0895F894FFCF1B
:1011FA00010120BD0D3F0CE80A510ABA092E08491F
:10120A0007F401B0042003DC05D007C8009808A43D
:10121A00060303030303030303C0F9A4B0999282EC
:10122A00D88090BF76656E64696E67206D61636869
:10123A00696E650020696E73657274206D6F6E65E4
:10124A00790073656C656374656420676F6F647396
:10125A000062757969742D412063616E63656C2D36
:10126A0044002062652073686F7274206F660020E4
:0E127A00206D6F6E65792E2E2E2E2E2E2E00DC
:00000001FF
