S020000041544D4547413132385F56656E64696E674D616368696E652E73726563DB
S11300005EC000007AC0000078C0000076C0000026
S113001074C0000072C0000070C000006EC0000018
S11300206CC000006AC0000068C0000066C0000028
S11300300C94540862C0000060C000005EC0000060
S11300405CC000005AC0000058C0000056C0000048
S113005054C0000052C0000050C000004EC0000058
S11300604CC000004AC000000C946F0846C0000059
S113007044C0000042C0000040C000003EC0000078
S11300803CC000003AC0000038C00000DF02EA02B1
S113009000030F034F0357036F03780428050C056F
S11300A0F004D404B8049C04800444055E05660589
S11300B082059E05BA05D605F2050D06280611240B
S11300C01FBECFEFD0E1DEBFCDBF11E0A0E0B1E0B5
S11300D0EEE7F1E100E00BBF02C007900D92AE38ED
S11300E0B107D9F721E0AEE8B1E001C01D92AB3C05
S11300F0B207E1F7C0D70C94BD0882CF80EF82B974
S11301008FEF87BB9FE094BB8ABB8093610087E13C
S11301108093640011BA08951FBC8DE08EBD80E900
S113012090E09BBD8ABD089510928B008AE0809375
S11301308A008DEB9DE0909387008093860008955C
S113014080E187BF80937D0080E88FBF0895809110
S1130150C8018F5F8093C801843010F01092C801E9
S11301608091C801813049F028F0823049F0833011
S113017051F00BC08EEF85BB08C08DEF85BB05C069
S11301808BEF85BB02C087EF85BB83E397E00197C4
S1130190F1F783B382958F7080939A019091C8018F
S11301A091111BC08823C9F08E3021F481E3809320
S11301B0020108958D3021F482E3809302010895B1
S11301C08B3021F483E3809302010895873009F092
S11301D057C081E48093020108959130D1F48823BB
S11301E0C1F08E3021F484E38093020108958D30B0
S11301F021F485E38093020108958B3021F486E392
S11302008093020108958730D9F582E48093020136
S113021008959230D1F48823C1F08E3021F487E31D
S11302208093020108958D3021F488E380930201C4
S113023008958B3021F489E3809302010895873077
S1130240F9F483E48093020108959330C9F4882378
S1130250B9F08E3021F48AE28093020108958D3042
S113026021F480E38093020108958B3021F483E22A
S1130270809302010895873019F484E48093020185
S113028008950F931F93CF93DF9380B3C0B3C270CD
S1130290F0B3F470E0B3E870D82FD17080FF09C0D8
S11302A080919501811105C08091C1018F5F809378
S11302B0C101C23049F480919401811105C080913B
S11302C09C018F5F80939C01F43049F480919301E9
S11302D0811105C08091C4018F5F8093C401E8300F
S11302E049F480919201811105C08091C6018F5F0C
S11302F08093C6018091C10190919C0124EF31E06B
S1130300929FA001939F500D112424E6829F400DDB
S1130310511D11246091C40128EE33E0629FC00195
S1130320639F900D1124480F591F6091C60188E8FE
S113033093E1689F9001699F300D1124420F531F70
S1130340509399014093980180919701833019F05B
S1130350853009F090C04091C9015091CA019A01B9
S1130360ADECBCECFBD696958795969587959695BE
S113037087959C01220F331F880F991F880F991F9F
S1130380880F991F820F931F9A01281B390B209302
S1130390C3019A01E3D68C01169507951695079526
S11303A0169507959801DAD696958795969587952B
S11303B0969587959C01220F331F880F991F880FEC
S11303C0991F880F991F820F931F9801281B390BBF
S11303D020939B019A013695279536952795ABE78F
S11303E0B4E1BCD68C01169507959801ADECBCEC34
S11303F0B5D69695879596958795969587959C01FC
S1130400220F331F880F991F880F991F880F991F78
S1130410820F931F9801281B390B2093C2019A0164
S1130420369527953695279536952795A5ECB0E210
S113043095D6AC01529542954F7045275F7045277C
S11304409A01ADECBCEC8AD69695879596958795DE
S1130450969587959C01220F331F880F991F880F4B
S1130460991F880F991F820F931F9A01281B390B1C
S1130470209396018BC09A01ADECBCEC6FD6969597
S1130480879596958795969587959C01220F331F9E
S1130490880F991F880F991F880F991F820F931F28
S11304A09A01281B390B2093C3019A0157D68C015A
S11304B016950795169507951695079598014ED6A6
S11304C09695879596958795969587959C01220F85
S11304D0331F880F991F880F991F880F991F820F48
S11304E0931F9801281B390B20939B019A01369581
S11304F0279536952795ABE7B4E130D68C01169550
S113050007959801ADECBCEC29D696958795969500
S11305108795969587959C01220F331F880F991F05
S1130520880F991F880F991F820F931F9801281B0A
S1130530390B2093C2019A01369527953695279554
S113054036952795A5ECB0E209D6AC0152954295B3
S11305504F7045275F7045279A01ADECBCECFED582
S11305609695879596958795969587959C01220FE4
S1130570331F880F991F880F991F880F991F820FA7
S1130580931F9A01281B390B20939601D093950150
S1130590C0939401F0939301E0939201DF91CF9182
S11305A01F910F910895E09197018E2F90E087306D
S11305B0910508F0ABC0FC01EA5BFF4FC6C5809112
S11305C0980190919901892B09F4A0C081E080934E
S11305D097010895809102019FEC980F983008F0DC
S11305E095C080538093010182E0809397018091AC
S11305F09801909199019093CA018093C90108953B
S113060080910201813421F483E08093970108955D
S1130610843409F07BC086E0809397010895E091CB
S11306200101F0E03197EE0FFF1FEF5EFE4F2081D6
S113063031818091C9019091CA018217930760F4B6
S11306404091C701483041F440910001413021F408
S113065084E080939701089540910201443421F489
S113066086E080939701089540910001413041F460
S1130670821B930B9093CA018093C90110920001CD
S11306808091C9019091CA01892B09F03FC08091E2
S1130690C7018830D9F585E080939701089580914A
S11306A00201843499F586E080939701089580913E
S11306B0C701883059F5109297011092C70181E063
S11306C08093000110929901109298011092C10137
S11306D010929C011092C4011092C6010895809159
S11306E0C701883099F4109297011092C70181E0F4
S11306F08093000110929901109298011092C10107
S113070010929C011092C4011092C6010895809128
S11307109701843009F484C018F4833041F0A6C2F0
S1130720853009F4D9C0863009F4BCC19FC28091D8
S1130730C701833089F128F4882351F0813081F096
S113074069C0853009F444C0883009F45DC062C0D2
S113075081E08093C70110929E0110929D0108953B
S11307608091030190910401909387008093860007
S113077080919D0190919E01019690939E0180939A
S11307809D01C29708F477C210929E0110929D01B8
S113079083E08093C7010895809107019091080137
S11307A0909387008093860080919D0190919E0193
S11307B0019690939E0180939D01C29708F45BC2B9
S11307C010929E0110929D0185E08093C7010895C7
S11307D080910B0190910C01909387008093860087
S11307E080919D0190919E01019690939E0180932A
S11307F09D01C29708F43FC210929E0110929D0180
S113080088E08093C7010895E5E6F0E080818F7E5B
S113081080830895E5E6F0E080818F7E80830895EB
S11308208091C701833091F018F4882339F04EC0C9
S1130830873041F1883009F441C048C083E0809397
S1130840C70110929E0110929D01089580910701A5
S113085090910801909387008093860080919D0178
S113086090919E01019690939E0180939D01C29761
S113087008F401C210929E0110929D0187E08093BA
S1130880C701089580910F01909110019093870002
S11308908093860080919D0190919E010196909392
S11308A09E0180939D01C29708F4E5C110929E01B8
S11308B010929D0188E08093C70108951092C701AA
S11308C0E5E6F0E080818F7E80830895E5E6F0E040
S11308D080818F7E80830895E091C7018E2F90E000
S11308E08930910508F0D8C0FC01E35BFF4F2DC4AB
S11308F087E08093C70110929E0110929D01089594
S113090080910F019091100190938700809386004D
S113091080919D0190919E01019690939E018093F8
S11309209D01C29708F4A7C110929E0110929D01E7
S113093086E08093C701089580910D0190910E0186
S1130940909387008093860080919D0190919E01F1
S1130950019690939E0180939D01C29708F48BC1E8
S113096010929E0110929D0185E08093C701089525
S113097080910B0190910C019093870080938600E5
S113098080919D0190919E01019690939E01809388
S11309909D01C29708F46FC110929E0110929D01AF
S11309A084E08093C70108958091090190910A0120
S11309B0909387008093860080919D0190919E0181
S11309C0019690939E0180939D01C29708F453C1B0
S11309D010929E0110929D0183E08093C7010895B7
S11309E0809107019091080190938700809386007D
S11309F080919D0190919E01019690939E01809318
S1130A009D01C29708F437C110929E0110929D0176
S1130A1082E08093C70108958091050190910601B9
S1130A20909387008093860080919D0190919E0110
S1130A30019690939E0180939D01C29708F41BC177
S1130A4010929E0110929D0181E08093C701089548
S1130A508091030190910401909387008093860014
S1130A6080919D0190919E01019690939E018093A7
S1130A709D01C29708F4FFC010929E0110929D013F
S1130A8088E08093C70108951092C701E5E6F0E07D
S1130A9080818F7E80830895E5E6F0E080818F7EFB
S1130AA080830895E091C7018E2F90E089309105ED
S1130AB008F0D6C0FC01EA5AFF4F47C381E0809397
S1130AC0C70110929E0110929D0108958091030127
S1130AD090910401909387008093860080919D01FA
S1130AE090919E01019690939E0180939D01C297DF
S1130AF008F4C1C010929E0110929D0182E080937F
S1130B00C701089580910501909106019093870093
S1130B108093860080919D0190919E01019690930F
S1130B209E0180939D01C29708F4A5C010929E0176
S1130B3010929D0183E08093C7010895809107017D
S1130B4090910801909387008093860080919D0185
S1130B5090919E01019690939E0180939D01C2976E
S1130B6008F489C010929E0110929D0184E0809344
S1130B70C70108958091090190910A01909387001B
S1130B808093860080919D0190919E01019690939F
S1130B909E0180939D01C29708F46DC010929E013E
S1130BA010929D0185E08093C701089580910B0107
S1130BB090910C01909387008093860080919D0111
S1130BC090919E01019690939E0180939D01C297FE
S1130BD008F451C010929E0110929D0186E080930A
S1130BE0C701089580910D0190910E0190938700A3
S1130BF08093860080919D0190919E01019690932F
S1130C009E0180939D01C297B0F110929E011092B3
S1130C109D0187E08093C701089580910F01909111
S1130C201001909387008093860080919D0190919C
S1130C309E01019690939E0180939D01C297D8F0E6
S1130C4010929E0110929D0188E08093C70108953F
S1130C501092C701E5E6F0E080818F7E80830895DD
S1130C60E5E6F0E080818F7E80830895E5E6F0E09C
S1130C7080818F7E8083089580E007C0E82FF0E0B4
S1130C80E056FE4F90E290838F5F8032B8F3089570
S1130C90E5E6F0E090819B7F908390819D7F908337
S1130CA090819160908395E09A95F1F78BBB808158
S1130CB08E7F808385E08A95F1F7089588E3E8DFE5
S1130CC086E69EE00197F1F7000088E3E1DF86E61F
S1130CD09EE00197F1F7000088E3DADF86E69EE004
S1130CE00197F1F700008CE0D3DF8FEF9FE80197C5
S1130CF0F1F700C0000086E0CBDF8FEF9FE801979B
S1130D00F1F700C0000081E0C3DF8FEF9FE8019797
S1130D10F1F700C00000089590E4899F600D11244C
S1130D20862F8068B5CF0895E5E6F0E09081946061
S1130D30908390819D7F908390819160908395E0D2
S1130D409A95F1F78BBB80818E7F808385E08A95AD
S1130D50F1F70895CF93DF938091910181110BC036
S1130D60809190018F5F809390018A3068F081E0D8
S1130D708093910109C080919001815080939001EA
S1130D80811102C01092910180919701813009F480
S1130D904FC038F0823009F48EC0843009F4C2C0E8
S1130DA0F0C06ADF60E080E0B7DF80E1E4E3F1E017
S1130DB0A0EAB1E001900D928A95E1F7C0E007C086
S1130DC0EC2FF0E0E056FE4F8081AEDFCF5FC03104
S1130DD0B8F360E081E0A0DF8091900190E0FC0135
S1130DE0E055FE4F2DE22083FC01EF54FE4F3FE41B
S1130DF03083FC01EE54FE4F30E53083FC01ED54AA
S1130E00FE4F35E43083FC01EC54FE4F3EE4308366
S1130E10FC01EB54FE4F2083C0E107C0EC2FF0E04F
S1130E20E056FE4F808180DFCF5FC032B8F3A9C0A7
S1130E3023DF60E080E070DF8EE0E4E4F1E0A0EA2C
S1130E40B1E001900D928A95E1F7C0E007C0EC2F64
S1130E50F0E0E056FE4F808167DFCF5FC031B8F32A
S1130E6060E081E059DFE0EAF1E080919601805D85
S1130E70818B8091C201805D828B80919B01805D1A
S1130E80838B8091C301805D848BE6EBF1E087E77F
S1130E909FE6918380838EE690E093838283C0E112
S1130EA007C0EC2FF0E0E056FE4F80813DDFCF5FBE
S1130EB0C032B8F366C0E0DE60E080E02DDFC0EA57
S1130EC0D1E08FE0E2E5F1E0DE0101900D928A9538
S1130ED0E1F78EE38D8780910101805D8E87C0E00C
S1130EE007C0EC2FF0E0E056FE4F80811DDFCF5F9E
S1130EF0C031B8F360E081E00FDF81E1E1E6F1E0C9
S1130F00A0EBB1E001900D928A95E1F7C0E107C032
S1130F10EC2FF0E0E056FE4F808106DFCF5FC03259
S1130F20B8F32FC0A9DE60E080E0F6DE8DE0E2E7F2
S1130F30F1E0A0EAB1E001900D928A95E1F7C0E0FA
S1130F4007C0EC2FF0E0E056FE4F8081EDDECF5F6E
S1130F50C031B8F360E081E0DFDE8FE0EFE7F1E07D
S1130F60A0EBB1E001900D928A95E1F7C0E107C0D2
S1130F70EC2FF0E0E056FE4F8081D6DECF5FC0322A
S1130F80B8F3DF91CF91089580918F018F5F8093A3
S1130F908F01843010F010928F018091970184307A
S1130FA018F4813020F009C0853039F038C080EF62
S1130FB083B98091330188BB089580918F0181307A
S1130FC081F028F08230B9F08330F9F0089580E19F
S1130FD083B9E091C301F0E0E75DFE4F808188BBF7
S1130FE0089580E283B9E0919B01F0E0E75DFE4F54
S1130FF0808188BB089580E483B9E091C201F0E068
S1131000E75DFE4F808188BB089580E883B9E09155
S11310109601F0E0E75DFE4F808188BB08958FEF75
S113102088BB089580E024C0E82FF0E0EF5DFE4F18
S11310309081992371F0E2E6F0E0908121E030E0C4
S1131040082E02C0220F331F0A94E2F7292B2083B3
S11310500EC0E2E6F0E0908121E030E0082E02C00C
S1131060220F331F0A94E2F72095292320838F5FF0
S11310708830D0F2089542D821DE4ED855D860D8B1
S113108080919F01813039F410929F0160D8F9D882
S11310908ADA3DDB79DF8091C001813089F71092D3
S11310A0C001C0DF57DEECCF1F920F920FB60F9234
S11310B011248F9381E080939F018091C5018F5FFC
S11310C08093C5018A3028F01092C50181E0809395
S11310D0C0018F910F900FBE0F901F9018951F9213
S11310E00F920FB60F9211240BB60F928F93EF93BA
S11310F0FF938091C7018823B9F08830A9F08091CB
S11311008E01811109C0E5E6F0E080818061808371
S113111081E080938E010FC0E5E6F0E080818F7E50
S1131120808310928E0107C0E5E6F0E080818F7E17
S1131130808310928E01FF91EF918F910F900BBEDF
S11311400F900FBE0F901F901895EE0FFF1F0024F5
S1131150001C0BBE0790F691E02D0994A29FB001EC
S1131160B39FC001A39F700D811D1124911DB29FD7
S1111170700D811D1124911D0895F894FFCF78
S113117E010120BD0D3F0CE80A510ABA092E084997
S113118E07F401B0042003DC05D007C8009808A4B6
S113119E060303030303030303C0F9A4B099928265
S11311AED88090BF76656E64696E67206D616368E2
S11311BE696E650020696E73657274206D6F6E655D
S11311CE790073656C656374656420676F6F64730F
S11311DE0062757969742D412063616E63656C2DAF
S11311EE44002062652073686F7274206F6600205D
S11111FE206D6F6E65792E2E2E2E2E2E2E0055
S9030000FC
